{
  "contractName": "VotingSystem",
  "abi": [
    {
      "inputs": [],
      "stateMutability": "nonpayable",
      "type": "constructor"
    },
    {
      "anonymous": false,
      "inputs": [
        {
          "indexed": false,
          "internalType": "uint256",
          "name": "id",
          "type": "uint256"
        },
        {
          "indexed": false,
          "internalType": "string",
          "name": "name",
          "type": "string"
        },
        {
          "indexed": false,
          "internalType": "address",
          "name": "creator",
          "type": "address"
        }
      ],
      "name": "VoteCreated",
      "type": "event"
    },
    {
      "anonymous": false,
      "inputs": [
        {
          "indexed": false,
          "internalType": "uint256",
          "name": "voteId",
          "type": "uint256"
        },
        {
          "indexed": false,
          "internalType": "address",
          "name": "winner",
          "type": "address"
        }
      ],
      "name": "VoteEnded",
      "type": "event"
    },
    {
      "anonymous": false,
      "inputs": [
        {
          "indexed": false,
          "internalType": "uint256",
          "name": "voteId",
          "type": "uint256"
        },
        {
          "indexed": false,
          "internalType": "address",
          "name": "candidate",
          "type": "address"
        },
        {
          "indexed": false,
          "internalType": "string",
          "name": "message",
          "type": "string"
        }
      ],
      "name": "VoteError",
      "type": "event"
    },
    {
      "anonymous": false,
      "inputs": [
        {
          "indexed": false,
          "internalType": "uint256",
          "name": "voteId",
          "type": "uint256"
        },
        {
          "indexed": false,
          "internalType": "address",
          "name": "candidate",
          "type": "address"
        },
        {
          "indexed": false,
          "internalType": "address",
          "name": "voter",
          "type": "address"
        }
      ],
      "name": "Voted",
      "type": "event"
    },
    {
      "inputs": [],
      "name": "owner",
      "outputs": [
        {
          "internalType": "address",
          "name": "",
          "type": "address"
        }
      ],
      "stateMutability": "view",
      "type": "function",
      "constant": true
    },
    {
      "inputs": [],
      "name": "voteCount",
      "outputs": [
        {
          "internalType": "uint256",
          "name": "",
          "type": "uint256"
        }
      ],
      "stateMutability": "view",
      "type": "function",
      "constant": true
    },
    {
      "inputs": [
        {
          "internalType": "uint256",
          "name": "",
          "type": "uint256"
        }
      ],
      "name": "votes",
      "outputs": [
        {
          "internalType": "uint256",
          "name": "id",
          "type": "uint256"
        },
        {
          "internalType": "address",
          "name": "creator",
          "type": "address"
        },
        {
          "internalType": "string",
          "name": "name",
          "type": "string"
        },
        {
          "internalType": "uint256",
          "name": "rewardAmount",
          "type": "uint256"
        },
        {
          "internalType": "bool",
          "name": "ended",
          "type": "bool"
        },
        {
          "internalType": "address",
          "name": "winner",
          "type": "address"
        },
        {
          "internalType": "uint256",
          "name": "voterCount",
          "type": "uint256"
        }
      ],
      "stateMutability": "view",
      "type": "function",
      "constant": true
    },
    {
      "inputs": [],
      "name": "getContractName",
      "outputs": [
        {
          "internalType": "string",
          "name": "",
          "type": "string"
        }
      ],
      "stateMutability": "pure",
      "type": "function",
      "constant": true
    },
    {
      "inputs": [
        {
          "internalType": "string",
          "name": "_name",
          "type": "string"
        },
        {
          "internalType": "uint256",
          "name": "_rewardAmount",
          "type": "uint256"
        }
      ],
      "name": "createVote",
      "outputs": [
        {
          "internalType": "uint256",
          "name": "",
          "type": "uint256"
        }
      ],
      "stateMutability": "payable",
      "type": "function",
      "payable": true
    },
    {
      "inputs": [
        {
          "internalType": "uint256",
          "name": "_voteId",
          "type": "uint256"
        }
      ],
      "name": "joinVote",
      "outputs": [],
      "stateMutability": "payable",
      "type": "function",
      "payable": true
    },
    {
      "inputs": [
        {
          "internalType": "uint256",
          "name": "_voteId",
          "type": "uint256"
        },
        {
          "internalType": "address",
          "name": "_candidate",
          "type": "address"
        }
      ],
      "name": "vote",
      "outputs": [],
      "stateMutability": "nonpayable",
      "type": "function"
    },
    {
      "inputs": [
        {
          "internalType": "uint256",
          "name": "_voteId",
          "type": "uint256"
        }
      ],
      "name": "endVote",
      "outputs": [],
      "stateMutability": "payable",
      "type": "function",
      "payable": true
    },
    {
      "inputs": [],
      "name": "getVotes",
      "outputs": [
        {
          "components": [
            {
              "internalType": "uint256",
              "name": "id",
              "type": "uint256"
            },
            {
              "internalType": "address",
              "name": "creator",
              "type": "address"
            },
            {
              "internalType": "string",
              "name": "name",
              "type": "string"
            },
            {
              "internalType": "uint256",
              "name": "rewardAmount",
              "type": "uint256"
            },
            {
              "internalType": "bool",
              "name": "ended",
              "type": "bool"
            },
            {
              "internalType": "address",
              "name": "winner",
              "type": "address"
            },
            {
              "internalType": "address[]",
              "name": "candidates",
              "type": "address[]"
            }
          ],
          "internalType": "struct VotingSystem.VoteInfo[]",
          "name": "",
          "type": "tuple[]"
        }
      ],
      "stateMutability": "view",
      "type": "function",
      "constant": true
    }
  ],
  "bytecode": "0x608060405234801561001057600080fd5b5033600260006101000a81548173ffffffffffffffffffffffffffffffffffffffff021916908373ffffffffffffffffffffffffffffffffffffffff160217905550611eb3806100616000396000f3fe6080604052600436106100865760003560e01c8063865df0ad11610059578063865df0ad146101525780638da5cb5b1461016e578063b2d4c86314610199578063c6384071146101b5578063f5f5ba72146101e057610086565b806302d947ef1461008b5780630dc96015146100b45780634541c853146100df5780635df813301461010f575b600080fd5b34801561009757600080fd5b506100b260048036038101906100ad91906112f2565b61020b565b005b3480156100c057600080fd5b506100c96103e1565b6040516100d69190611618565b60405180910390f35b6100f960048036038101906100f4919061176f565b6107d5565b60405161010691906117da565b60405180910390f35b34801561011b57600080fd5b50610136600480360381019061013191906117f5565b610998565b604051610149979695949392919061188a565b60405180910390f35b61016c600480360381019061016791906117f5565b610abf565b005b34801561017a57600080fd5b50610183610e29565b6040516101909190611900565b60405180910390f35b6101b360048036038101906101ae91906117f5565b610e4f565b005b3480156101c157600080fd5b506101ca6110c9565b6040516101d791906117da565b60405180910390f35b3480156101ec57600080fd5b506101f56110cf565b604051610202919061191b565b60405180910390f35b60008083815481106102205761021f61193d565b5b906000526020600020906009020190508060060160003373ffffffffffffffffffffffffffffffffffffffff1673ffffffffffffffffffffffffffffffffffffffff16815260200190815260200160002060009054906101000a900460ff16156102c3577f8338e5582049673bef1c437212ee2be5bb463941fce629ac4bddd0d41d9607ea83336040516102b59291906119b8565b60405180910390a1506103dd565b8060040160009054906101000a900460ff1615610319577f8338e5582049673bef1c437212ee2be5bb463941fce629ac4bddd0d41d9607ea833360405161030b929190611a40565b60405180910390a1506103dd565b8060070160008373ffffffffffffffffffffffffffffffffffffffff1673ffffffffffffffffffffffffffffffffffffffff168152602001908152602001600020600081548092919061036b90611aab565b919050555080600801600081548092919061038590611aab565b919050555060038160080154106103a05761039f83610abf565b5b7ff6c8f1f54b2f54fb963820203fdef5b9aefb56ae2c4dd8b6133e151791a07f368383336040516103d393929190611af3565b60405180910390a1505b5050565b6060600060015467ffffffffffffffff81111561040157610400611644565b5b60405190808252806020026020018201604052801561043a57816020015b61042761110c565b81526020019060019003908161041f5790505b50905060005b6001548110156107cd57600080828154811061045f5761045e61193d565b5b906000526020600020906009020190506000816005018054905067ffffffffffffffff81111561049257610491611644565b5b6040519080825280602002602001820160405280156104cb57816020015b6104b8611177565b8152602001906001900390816104b05790505b50905060005b82600501805490508110156105c35760008360050182815481106104f8576104f761193d565b5b9060005260206000200160009054906101000a900473ffffffffffffffffffffffffffffffffffffffff16905060405180604001604052808273ffffffffffffffffffffffffffffffffffffffff1681526020018560070160008473ffffffffffffffffffffffffffffffffffffffff1673ffffffffffffffffffffffffffffffffffffffff168152602001908152602001600020548152508383815181106105a4576105a361193d565b5b60200260200101819052505080806105bb90611aab565b9150506104d1565b506040518060e00160405280836000015481526020018360010160009054906101000a900473ffffffffffffffffffffffffffffffffffffffff1673ffffffffffffffffffffffffffffffffffffffff16815260200183600201805461062890611b59565b80601f016020809104026020016040519081016040528092919081815260200182805461065490611b59565b80156106a15780601f10610676576101008083540402835291602001916106a1565b820191906000526020600020905b81548152906001019060200180831161068457829003601f168201915b50505050508152602001836003015481526020018360040160009054906101000a900460ff16151581526020018360040160019054906101000a900473ffffffffffffffffffffffffffffffffffffffff1673ffffffffffffffffffffffffffffffffffffffff1681526020018360050180548060200260200160405190810160405280929190818152602001828054801561079257602002820191906000526020600020905b8160009054906101000a900473ffffffffffffffffffffffffffffffffffffffff1673ffffffffffffffffffffffffffffffffffffffff1681526020019060010190808311610748575b50505050508152508484815181106107ad576107ac61193d565b5b6020026020010181905250505080806107c590611aab565b915050610440565b508091505090565b6000806001816001815401808255809150500390600052602060002090505060008060016000805490506108099190611b8a565b8154811061081a5761081961193d565b5b906000526020600020906009020190506001548160000181905550338160010160006101000a81548173ffffffffffffffffffffffffffffffffffffffff021916908373ffffffffffffffffffffffffffffffffffffffff160217905550838160020190805190602001906108909291906111a7565b5082816003018190555060008160040160006101000a81548160ff021916908315150217905550600081600801819055507f0b0eb434b18eb3f0d02f9b4b01d92bf397c2fde355b0b3fad98aa2a5ffd63c2c816000015485336040516108f893929190611bbe565b60405180910390a16001600081548092919061091390611aab565b9190505550600260009054906101000a900473ffffffffffffffffffffffffffffffffffffffff1673ffffffffffffffffffffffffffffffffffffffff166108fc349081150290604051600060405180830381858888f19350505050158015610980573d6000803e3d6000fd5b506001805461098f9190611b8a565b91505092915050565b600081815481106109a857600080fd5b90600052602060002090600902016000915090508060000154908060010160009054906101000a900473ffffffffffffffffffffffffffffffffffffffff16908060020180546109f790611b59565b80601f0160208091040260200160405190810160405280929190818152602001828054610a2390611b59565b8015610a705780601f10610a4557610100808354040283529160200191610a70565b820191906000526020600020905b815481529060010190602001808311610a5357829003601f168201915b5050505050908060030154908060040160009054906101000a900460ff16908060040160019054906101000a900473ffffffffffffffffffffffffffffffffffffffff16908060080154905087565b6000805490508110610b06576040517f08c379a0000000000000000000000000000000000000000000000000000000008152600401610afd90611c48565b60405180910390fd5b6000808281548110610b1b57610b1a61193d565b5b906000526020600020906009020190508060040160009054906101000a900460ff1615610b7d576040517f08c379a0000000000000000000000000000000000000000000000000000000008152600401610b7490611c68565b60405180910390fd5b60008080600090505b8360050180549050811015610cf95782846007016000866005018481548110610bb257610bb161193d565b5b9060005260206000200160009054906101000a900473ffffffffffffffffffffffffffffffffffffffff1673ffffffffffffffffffffffffffffffffffffffff1673ffffffffffffffffffffffffffffffffffffffff168152602001908152602001600020541115610ce657836007016000856005018381548110610c3a57610c3961193d565b5b9060005260206000200160009054906101000a900473ffffffffffffffffffffffffffffffffffffffff1673ffffffffffffffffffffffffffffffffffffffff1673ffffffffffffffffffffffffffffffffffffffff168152602001908152602001600020549250836005018181548110610cb857610cb761193d565b5b9060005260206000200160009054906101000a900473ffffffffffffffffffffffffffffffffffffffff1691505b8080610cf190611aab565b915050610b86565b5060018360040160006101000a81548160ff021916908315150217905550808360040160016101000a81548173ffffffffffffffffffffffffffffffffffffffff021916908373ffffffffffffffffffffffffffffffffffffffff160217905550600073ffffffffffffffffffffffffffffffffffffffff168173ffffffffffffffffffffffffffffffffffffffff1614610dea578073ffffffffffffffffffffffffffffffffffffffff166108fc64e8d4a510008560030154610dbd9190611c88565b9081150290604051600060405180830381858888f19350505050158015610de8573d6000803e3d6000fd5b505b7fe22a1d833a28e5e481d4b95a3d9c04b8e2a5b513643f54b9d2f308ef344137298482604051610e1b929190611ce2565b60405180910390a150505050565b600260009054906101000a900473ffffffffffffffffffffffffffffffffffffffff1681565b6000808281548110610e6457610e6361193d565b5b906000526020600020906009020190506000805490508210610ebf577f8338e5582049673bef1c437212ee2be5bb463941fce629ac4bddd0d41d9607ea8233604051610eb1929190611d0b565b60405180910390a1506110c6565b8060060160003373ffffffffffffffffffffffffffffffffffffffff1673ffffffffffffffffffffffffffffffffffffffff16815260200190815260200160002060009054906101000a900460ff1615610f52577f8338e5582049673bef1c437212ee2be5bb463941fce629ac4bddd0d41d9607ea8233604051610f44929190611db9565b60405180910390a1506110c6565b8060040160009054906101000a900460ff1615610fa8577f8338e5582049673bef1c437212ee2be5bb463941fce629ac4bddd0d41d9607ea8233604051610f9a929190611a40565b60405180910390a1506110c6565b60003411610fef577f8338e5582049673bef1c437212ee2be5bb463941fce629ac4bddd0d41d9607ea8233604051610fe1929190611e41565b60405180910390a1506110c6565b80600501339080600181540180825580915050600190039060005260206000200160009091909190916101000a81548173ffffffffffffffffffffffffffffffffffffffff021916908373ffffffffffffffffffffffffffffffffffffffff16021790555060018160060160003373ffffffffffffffffffffffffffffffffffffffff1673ffffffffffffffffffffffffffffffffffffffff16815260200190815260200160002060006101000a81548160ff02191690831515021790555060038160080154106110c4576110c382610abf565b5b505b50565b60015481565b60606040518060400160405280600c81526020017f566f74696e6753797374656d0000000000000000000000000000000000000000815250905090565b6040518060e0016040528060008152602001600073ffffffffffffffffffffffffffffffffffffffff1681526020016060815260200160008152602001600015158152602001600073ffffffffffffffffffffffffffffffffffffffff168152602001606081525090565b6040518060400160405280600073ffffffffffffffffffffffffffffffffffffffff168152602001600081525090565b8280546111b390611b59565b90600052602060002090601f0160209004810192826111d5576000855561121c565b82601f106111ee57805160ff191683800117855561121c565b8280016001018555821561121c579182015b8281111561121b578251825591602001919060010190611200565b5b509050611229919061122d565b5090565b5b8082111561124657600081600090555060010161122e565b5090565b6000604051905090565b600080fd5b600080fd5b6000819050919050565b6112718161125e565b811461127c57600080fd5b50565b60008135905061128e81611268565b92915050565b600073ffffffffffffffffffffffffffffffffffffffff82169050919050565b60006112bf82611294565b9050919050565b6112cf816112b4565b81146112da57600080fd5b50565b6000813590506112ec816112c6565b92915050565b6000806040838503121561130957611308611254565b5b60006113178582860161127f565b9250506020611328858286016112dd565b9150509250929050565b600081519050919050565b600082825260208201905092915050565b6000819050602082019050919050565b6113678161125e565b82525050565b611376816112b4565b82525050565b600081519050919050565b600082825260208201905092915050565b60005b838110156113b657808201518184015260208101905061139b565b838111156113c5576000848401525b50505050565b6000601f19601f8301169050919050565b60006113e78261137c565b6113f18185611387565b9350611401818560208601611398565b61140a816113cb565b840191505092915050565b60008115159050919050565b61142a81611415565b82525050565b600081519050919050565b600082825260208201905092915050565b6000819050602082019050919050565b6000611468838361136d565b60208301905092915050565b6000602082019050919050565b600061148c82611430565b611496818561143b565b93506114a18361144c565b8060005b838110156114d25781516114b9888261145c565b97506114c483611474565b9250506001810190506114a5565b5085935050505092915050565b600060e0830160008301516114f7600086018261135e565b50602083015161150a602086018261136d565b506040830151848203604086015261152282826113dc565b9150506060830151611537606086018261135e565b50608083015161154a6080860182611421565b5060a083015161155d60a086018261136d565b5060c083015184820360c08601526115758282611481565b9150508091505092915050565b600061158e83836114df565b905092915050565b6000602082019050919050565b60006115ae82611332565b6115b8818561133d565b9350836020820285016115ca8561134e565b8060005b8581101561160657848403895281516115e78582611582565b94506115f283611596565b925060208a019950506001810190506115ce565b50829750879550505050505092915050565b6000602082019050818103600083015261163281846115a3565b905092915050565b600080fd5b600080fd5b7f4e487b7100000000000000000000000000000000000000000000000000000000600052604160045260246000fd5b61167c826113cb565b810181811067ffffffffffffffff8211171561169b5761169a611644565b5b80604052505050565b60006116ae61124a565b90506116ba8282611673565b919050565b600067ffffffffffffffff8211156116da576116d9611644565b5b6116e3826113cb565b9050602081019050919050565b82818337600083830152505050565b600061171261170d846116bf565b6116a4565b90508281526020810184848401111561172e5761172d61163f565b5b6117398482856116f0565b509392505050565b600082601f8301126117565761175561163a565b5b81356117668482602086016116ff565b91505092915050565b6000806040838503121561178657611785611254565b5b600083013567ffffffffffffffff8111156117a4576117a3611259565b5b6117b085828601611741565b92505060206117c18582860161127f565b9150509250929050565b6117d48161125e565b82525050565b60006020820190506117ef60008301846117cb565b92915050565b60006020828403121561180b5761180a611254565b5b60006118198482850161127f565b91505092915050565b61182b816112b4565b82525050565b600082825260208201905092915050565b600061184d8261137c565b6118578185611831565b9350611867818560208601611398565b611870816113cb565b840191505092915050565b61188481611415565b82525050565b600060e08201905061189f600083018a6117cb565b6118ac6020830189611822565b81810360408301526118be8188611842565b90506118cd60608301876117cb565b6118da608083018661187b565b6118e760a0830185611822565b6118f460c08301846117cb565b98975050505050505050565b60006020820190506119156000830184611822565b92915050565b600060208201905081810360008301526119358184611842565b905092915050565b7f4e487b7100000000000000000000000000000000000000000000000000000000600052603260045260246000fd5b7f43616e646964617465732063616e6e6f7420766f746500000000000000000000600082015250565b60006119a2601683611831565b91506119ad8261196c565b602082019050919050565b60006060820190506119cd60008301856117cb565b6119da6020830184611822565b81810360408301526119eb81611995565b90509392505050565b7f566f74652068617320616c726561647920656e64656400000000000000000000600082015250565b6000611a2a601683611831565b9150611a35826119f4565b602082019050919050565b6000606082019050611a5560008301856117cb565b611a626020830184611822565b8181036040830152611a7381611a1d565b90509392505050565b7f4e487b7100000000000000000000000000000000000000000000000000000000600052601160045260246000fd5b6000611ab68261125e565b91507fffffffffffffffffffffffffffffffffffffffffffffffffffffffffffffffff8203611ae857611ae7611a7c565b5b600182019050919050565b6000606082019050611b0860008301866117cb565b611b156020830185611822565b611b226040830184611822565b949350505050565b7f4e487b7100000000000000000000000000000000000000000000000000000000600052602260045260246000fd5b60006002820490506001821680611b7157607f821691505b602082108103611b8457611b83611b2a565b5b50919050565b6000611b958261125e565b9150611ba08361125e565b925082821015611bb357611bb2611a7c565b5b828203905092915050565b6000606082019050611bd360008301866117cb565b8181036020830152611be58185611842565b9050611bf46040830184611822565b949350505050565b7f496e76616c696420766f74652049440000000000000000000000000000000000600082015250565b6000611c32600f83611831565b9150611c3d82611bfc565b602082019050919050565b60006020820190508181036000830152611c6181611c25565b9050919050565b60006020820190508181036000830152611c8181611a1d565b9050919050565b6000611c938261125e565b9150611c9e8361125e565b9250817fffffffffffffffffffffffffffffffffffffffffffffffffffffffffffffffff0483118215151615611cd757611cd6611a7c565b5b828202905092915050565b6000604082019050611cf760008301856117cb565b611d046020830184611822565b9392505050565b6000606082019050611d2060008301856117cb565b611d2d6020830184611822565b8181036040830152611d3e81611c25565b90509392505050565b7f596f75206861766520616c7265616479206a6f696e6564207468697320766f7460008201527f6500000000000000000000000000000000000000000000000000000000000000602082015250565b6000611da3602183611831565b9150611dae82611d47565b604082019050919050565b6000606082019050611dce60008301856117cb565b611ddb6020830184611822565b8181036040830152611dec81611d96565b90509392505050565b7f496e73756666696369656e74207061796d656e74000000000000000000000000600082015250565b6000611e2b601483611831565b9150611e3682611df5565b602082019050919050565b6000606082019050611e5660008301856117cb565b611e636020830184611822565b8181036040830152611e7481611e1e565b9050939250505056fea2646970667358221220ee468308714c5aa322e82bcb2cb94593c6c7f597884e97e790c285c218c16c9f64736f6c634300080e0033",
  "immutableReferences": {},
  "source": "// SPDX-License-Identifier: MIT\r\npragma solidity >=0.4.22 <0.9.0;\r\n\r\ncontract VotingSystem {\r\n    struct Vote {\r\n        uint id;\r\n        address creator;\r\n        string name;\r\n        uint rewardAmount;\r\n        bool ended;\r\n        address winner;\r\n        address[] candidates;\r\n        mapping(address => bool) hasJoined;\r\n        mapping(address => uint) votesReceived;\r\n        uint voterCount;\r\n    }\r\n\r\n    struct CandidateInfo {\r\n        address candidate;\r\n        uint votesReceived;\r\n    }\r\n\r\n\r\n    struct VoteInfo {\r\n        uint id;\r\n        address creator;\r\n        string name;\r\n        uint rewardAmount;\r\n        bool ended;\r\n        address winner;\r\n        address[] candidates;\r\n        //CandidateInfo[] candidatesInfo;\r\n    }\r\n\r\n    Vote[] public votes;\r\n    uint public voteCount;\r\n    address public owner;\r\n\r\n    event VoteCreated(uint id, string name, address creator);\r\n    event Voted(uint voteId, address candidate, address voter);\r\n    event VoteEnded(uint voteId, address winner);\r\n    event VoteError(uint voteId, address candidate, string message);\r\n    \r\n\r\n    constructor() {\r\n        owner = msg.sender;\r\n    }\r\n\r\n    function getContractName() public pure returns (string memory) {\r\n        return \"VotingSystem\";\r\n    }\r\n\r\n    function createVote(string memory _name, uint _rewardAmount) public payable returns (uint) {\r\n        //require(msg.value >= _rewardAmount, \"Insufficient reward amount\");\r\n\r\n        votes.push();\r\n        Vote storage newVote = votes[votes.length - 1];\r\n\r\n        newVote.id = voteCount;\r\n        newVote.creator = msg.sender;\r\n        newVote.name = _name;\r\n        newVote.rewardAmount = _rewardAmount;\r\n        newVote.ended = false;\r\n        newVote.voterCount = 0;\r\n        \r\n        emit VoteCreated(newVote.id, _name, msg.sender);\r\n        voteCount++;\r\n        payable(owner).transfer(msg.value);\r\n        return voteCount - 1;\r\n    }\r\n\r\n    function joinVote(uint _voteId) public payable {\r\n        //require(_voteId < votes.length, \"Invalid vote ID\");\r\n        Vote storage currentVote = votes[_voteId];\r\n        //require(!currentVote.ended, \"Vote has already ended\");\r\n        //require(!currentVote.hasJoined[msg.sender], \"You have already joined this vote\");\r\n        //require(msg.value > 0, \"You must pay to join the vote\");\r\n\r\n        if (_voteId >= votes.length) {\r\n            emit VoteError(_voteId, msg.sender, \"Invalid vote ID\");\r\n            return;\r\n        }\r\n\r\n        if (currentVote.hasJoined[msg.sender]) {\r\n            emit VoteError(_voteId, msg.sender, \"You have already joined this vote\");\r\n            return;\r\n        }\r\n\r\n        if (currentVote.ended) {\r\n            emit VoteError(_voteId, msg.sender, \"Vote has already ended\");\r\n            return;\r\n        }\r\n\r\n        if (msg.value <= 0) {\r\n            emit VoteError(_voteId, msg.sender, \"Insufficient payment\");\r\n            return;\r\n        }\r\n\r\n        currentVote.candidates.push(msg.sender);\r\n        currentVote.hasJoined[msg.sender] = true;\r\n\r\n        if (currentVote.voterCount >= 3) {\r\n            endVote(_voteId);\r\n        }\r\n    }\r\n\r\n    function vote(uint _voteId, address _candidate) public {\r\n        //require(_voteId < votes.length, \"Invalid vote ID\");\r\n        Vote storage targetVote = votes[_voteId];\r\n        //require(!targetVote.ended, \"Vote has already ended\");\r\n        //require(targetVote.hasJoined[_candidate], \"Candidate has not joined this vote\");\r\n        //require(!targetVote.hasJoined[msg.sender], \"Candidates cannot vote\");\r\n\r\n        if (targetVote.hasJoined[msg.sender]) {\r\n            emit VoteError(_voteId, msg.sender, \"Candidates cannot vote\");\r\n            return;\r\n        }\r\n\r\n        if (targetVote.ended) {\r\n            emit VoteError(_voteId, msg.sender, \"Vote has already ended\");\r\n            return;\r\n        }\r\n\r\n        targetVote.votesReceived[_candidate]++;\r\n        targetVote.voterCount++;\r\n\r\n        if (targetVote.voterCount >= 3) {\r\n            endVote(_voteId);\r\n        }\r\n\r\n        emit Voted(_voteId, _candidate, msg.sender);\r\n    }\r\n\r\n    function endVote(uint _voteId) public payable{\r\n        require(_voteId < votes.length, \"Invalid vote ID\");\r\n        Vote storage endingVote = votes[_voteId];\r\n        require(!endingVote.ended, \"Vote has already ended\");\r\n\r\n        uint maxVotes = 0;\r\n        address winner;\r\n\r\n        for (uint i = 0; i < endingVote.candidates.length; i++) {\r\n            if (endingVote.votesReceived[endingVote.candidates[i]] > maxVotes) {\r\n                maxVotes = endingVote.votesReceived[endingVote.candidates[i]];\r\n                winner = endingVote.candidates[i];\r\n            }\r\n        }\r\n\r\n        endingVote.ended = true;\r\n        endingVote.winner = winner;\r\n\r\n        if (winner != address(0)) {\r\n            payable(winner).transfer(endingVote.rewardAmount * 1e12);\r\n        }\r\n\r\n        emit VoteEnded(_voteId, winner);\r\n    }\r\n\r\n\r\n    function getVotes() public view returns (VoteInfo[] memory) {\r\n        VoteInfo[] memory voteInfos = new VoteInfo[](voteCount);\r\n\r\n        for (uint i = 0; i < voteCount; i++) {\r\n            Vote storage currentVote = votes[i];\r\n\r\n            CandidateInfo[] memory candidatesInfo = new CandidateInfo[](currentVote.candidates.length);\r\n            for (uint j = 0; j < currentVote.candidates.length; j++) {\r\n                address candidate = currentVote.candidates[j];\r\n                candidatesInfo[j] = CandidateInfo({\r\n                    candidate: candidate,\r\n                    votesReceived: currentVote.votesReceived[candidate]\r\n                });\r\n            }\r\n\r\n            voteInfos[i] = VoteInfo({\r\n                id: currentVote.id,\r\n                creator: currentVote.creator,\r\n                name: currentVote.name,\r\n                rewardAmount: currentVote.rewardAmount,\r\n                ended: currentVote.ended,\r\n                winner: currentVote.winner,\r\n                candidates: currentVote.candidates\r\n            });\r\n        }\r\n        return voteInfos;\r\n    }\r\n}",
  "sourcePath": "D:\\BlockChain_Demo\\BlockChainFinalDemo-main\\BlockChainFinalDemo-main\\dserver\\contracts\\VoteSystem.sol",
  "compiler": {
    "name": "solc",
    "version": "0.8.14+commit.80d49f37.Emscripten.clang"
  },
  "schemaVersion": "3.4.11",
  "updatedAt": "2024-06-17T15:15:23.979Z",
  "networkType": "ethereum",
  "devdoc": {
    "kind": "dev",
    "methods": {},
    "version": 1
  },
  "userdoc": {
    "kind": "user",
    "methods": {},
    "version": 1
  }
}